:1000000042C0ADC15BC05AC059C058C057C056C0ED
:1000100055C054C053C052C051C050C04FC04EC054
:100020004DC04CC04BC04AC049C048C047C046C084
:1000300045C044C0040309041C037700770077001F
:100040002E00660069007300630068006C002E00DB
:10005000640065000E035500530042006100730008
:10006000700012011001FF000008C016DC0503013A
:1000700001020001090212000101008019090400B7
:1000800000000000000011241FBECFEFD2E0DEBF51
:10009000CDBF11E0A0E0B1E0E0E0FFE002C00590DC
:1000A0000D92A230B107D9F711E0A2E0B1E001C092
:1000B0001D92A734B107E1F7C4D420C7A1CFE9E668
:1000C000F0E0808183608083E89A08951F93CF9346
:1000D000DF9360912801635067FD13C08091250173
:1000E000CCE0D0E0C81BD109C45DDE4F8091240173
:1000F0008D3209F462C08091020187FD84C01092A4
:1001000028018091000184FF4AC0609101016F3F86
:1001100009F445C0693070F1685060930101809125
:10012000180198E889278093180168E080910201FE
:1001300087FD8BC0209126013091270186FF6DC07D
:10014000A9E1B1E080E090E0F901E80FF91FE49146
:10015000ED9301966817C1F76150862F90E06F5FAD
:100160000196820F931F9093270180932601162FEB
:100170001C5F0BC0109201018091180198E889273B
:1001800080931801662391F614E089E191E0E3D0B1
:100190001C3019F08FEF809301011093000194E15E
:1001A00083B1837031F49150D9F7109229011092E4
:1001B0002301DF91CF911F910895683009F09FCFFF
:1001C00083EC809318018AE580930001109202016C
:1001D0008881807659F59A8110922101898188233E
:1001E00009F043C01092220122E081E291E0909355
:1001F0002701809326018F81882319F49E8192170D
:1002000008F1922F1FC0CE012DD48F3F51F18823CA
:1002100009F475CF1092010172CF962FD901E9E14F
:10022000F1E08D9181939150E1F796CFCE010CD5FD
:10023000282F8F3F01F7888187FD25C09FEF80E839
:1002400080930201909301015ACF89E191E0ACD4EF
:10025000682F893008F453C08FEF809301011EE1AD
:100260009CCF8EE1809300014ACF853071F08630BB
:1002700091F0883031F1893061F18A3031F120E03C
:1002800081E291E0B4CF9E81DACF9093290120E002
:1002900081E291E0ACCF8B81813049F18230F9F07D
:1002A000833029F020E080E480930201A4CF9923D9
:1002B00049F584E390E0909327018093260124E0A0
:1002C000F2CF21E08BE291E092CF21E081E291E058
:1002D0008ECF90932B0120E081E291E088CF84E7DC
:1002E00090E0909327018093260122E1DCCF82E603
:1002F00090E0909327018093260122E1D4CF182F1C
:100300001C5F43CF913051F0923061F684E590E06C
:1003100090932701809326012EE0C5CF88E390E0DB
:1003200090932701809326012CE1BDCFA82FB92FF0
:1003300080E090E041E050EA60956F5F58F42D91C5
:1003400038EF82279795879510F0842795273F5F90
:10035000C8F3F3CF0895EADF8D939D930895CF936B
:10036000CFB7CF93C395189BE9F7189B09C0189B8B
:1003700007C0189B05C0189B03C0189B01C0A1C0F3
:10038000DF93C0912501DD27C45DDE4F189B02C0BD
:10039000DF91EBCF2F930F931F9303B12FEF00FB50
:1003A00020F94F933F9313B14FEF012700FB21F941
:1003B0003BE031C04E7F012F13B1216028C0102FC8
:1003C0004D7F2260000003B129C04B7F2460012FC4
:1003D000000013B12BC013B1477F28602AC04F7EA5
:1003E00003B120612CC04F7D13B120622FC04F7B21
:1003F00003B1206432C0422703B149934FEF00009C
:10040000102710FB20F913B11370C9F1297F91F265
:10041000012700FB21F903B1237F89F2315058F104
:10042000102710FB22F913B1277E79F2012700FB78
:1004300023F92F7C81F203B1102710FB24F92F79C7
:1004400071F200C013B1012700FB25F92F7359F297
:1004500000C003B1102710FB26F9223040F200C083
:1004600013B1012700FB27F9243028F64F772068C5
:1004700013B10000F9CF11E01CBB002717C03B509F
:100480003195C31BD04011E01CBB0881033CE9F04F
:100490000B34D9F0209123011981110F1213EDCFE4
:1004A000093641F10D3211F0013E39F700932A016E
:1004B0003F914F911F910F912F91DF91CCB3C0FDD0
:1004C00051CFCF91CFBFCF91189520912A012223F0
:1004D00079F310912801112311F5343012F1309382
:1004E000280120932401109125013BE0311B30931A
:1004F000250117C00091280101308CF40AE53091E4
:10050000000134FD10C000930001C8E1D1E00FC02C
:100510002795A8F45150A9F4220F0000F9CF4AE51D
:1005200003C042ED01C0432FC4E1D0E032E014B17A
:100530001360289A14B905B120E413E05F930127F2
:1005400056E005B9279520F4515021F4220FF9CF38
:10055000012756E000003B5A05B9D0F2279528F450
:10056000515029F4220F0000F9CF012756E02795BA
:1005700005B920F4515021F4220FF9CF012756E09C
:100580002991332305B921F60C7F10912901110F10
:10059000C651D04005B911F01093230111E01CBBE6
:1005A000016014B11C7F402F4C7F5F9100C000C0E0
:1005B00005B914B945B97CCF809145018CBD8091B6
:1005C00042018DBD0895282F8823A1F0883008F0BE
:1005D0003FC08CE793E09093440180934301243023
:1005E00001F12530A0F0263081F1263050F127307E
:1005F000E1F008958DE993E09093440180934301E5
:1006000082E58093450181E0809342010895223084
:10061000A1F0233070F4213061F780EC8093460123
:10062000089588E180934601089583E08093460110
:10063000089580E380934601089580E68093460103
:1006400008958CE080934601089520934601089513
:100650008DE993E09093440180934301109242010D
:10066000293041F02A3050F4283051F683E5809348
:100670004501089582E58093450108952B3031F0BE
:100680002C3009F0BDCF81E08093420181E5809359
:100690004501089526B59091460186B5821B8917BC
:1006A000E0F3089584B18C6284B92A982D9896B5A8
:1006B0002091460186B5891B8217E0F32A9A96B5E8
:1006C00086B5891B8217E0F32A98809143019091A7
:1006D00044018D59934009F00895809145018CBDE6
:1006E000809142018DBD089584B1837D84B985B127
:1006F000837D85B91CBC0895582F2091460140E0A8
:1007000030E057FD16C02B98440F1C994F5F2D9A6F
:1007100096B586B5891B8217E0F32D9896B586B5F8
:10072000891B8217E0F33F5F383029F0550F57FFE0
:10073000EACF2B9AE9CF842F08958EBD0DB407FE22
:10074000FDCF8EB508950F931F930FE1E091430104
:10075000F09144018CEA0995E0914301F091440144
:1007600083E50995E0914301F091440180E009950A
:10077000182FE0914301F091440180E00995133571
:1007800039F11CBC2D9A96B52091460186B5891B7E
:100790008217E0F32D9896B586B5891B8217E0F392
:1007A000E0914301F091440183E0ED39F80721F035
:1007B000002351F00150CECF809145018CBD809136
:1007C00042018DBD0023B1F781E01F910F91089583
:1007D00080E01F910F910895EF92FF920F931F9366
:1007E0007B018C01862F8170880F880F880FE09124
:1007F0004301F091440180620995D801C70129E0C5
:10080000B695A795979587952A95D1F7E0914301DD
:10081000F0914401099516950795F794E794E091B6
:100820004301F09144018E2D0995E0914301F0912F
:10083000440180E009951F910F91FF90EF9008957A
:100840000F931F938C01E0914301F091440180EAE2
:100850000995E0914301F0914401812F0995E091C0
:100860004301F0914401802F0995E0914301F091FB
:10087000440180E009951F910F910895FF920F9315
:100880001F938C01F62EE0914301F091440180EC1E
:100890000995E0914301F0914401812F0995E09180
:1008A0004301F0914401802F0995E0914301F091BB
:1008B00044018F2D09958EE1B7D080E01F910F91F3
:1008C000FF900895CF92DF92EF92FF920F931F93C4
:1008D0006B017C01142FE0914301F09144018CE401
:1008E0000995D701C60149E0B695A79597958795D3
:1008F0004A95D1F7E0914301F09144010995D70160
:10090000C601B695A79597958795E0914301F0911B
:1009100044010995E0914301F091440180E009957B
:100920001F3FF1F016B50EE1C701B60155DF8F3F4D
:1009300079F486B5811B8D33B8F316B50150A1F754
:1009400081E01F910F91FF90EF90DF90CF9008957D
:1009500080E01F910F91FF90EF90DF90CF9008956E
:100960008FE062D080E01F910F91FF90EF90DF90B9
:10097000CF900895CF92DF92EF92FF920F931F9343
:100980006B017C01042F122F862F8170880F880F36
:10099000880FE0914301F091440180640995D701EB
:1009A000C60169E0B695A795979587956A95D1F7A1
:1009B000E0914301F09144010995D701C601B69534
:1009C000A79597958795E0914301F091440109958A
:1009D000E0914301F0914401802F09951123C1F06A
:1009E0000F37F1F016B50EE1C701B601F5DE8F370E
:1009F00079F486B5811B8D33B8F316B50150A1F794
:100A000081E01F910F91FF90EF90DF90CF900895BC
:100A100080E01F910F91FF90EF90DF90CF900895AD
:100A20008FE002D080E0F5CF382F882349F020E016
:100A300096B586B5891B8C33E0F32F5F2317C0F37F
:100A400008951BB815B88BEF8AB98FEF84B914B825
:100A500093E097B98EEF88B995BD31DB789436DB9A
:100A600035DBFDCFFF920F931F93CF93DF93F82ECB
:100A7000292F062F40910301413051F0443041F0BD
:100A80001FEF812FDF91CF911F910F91FF9008955C
:100A9000002309F487C08F2D922F9C01E90110E0FB
:100AA00053C08091140190911501892B09F058C011
:100AB00060911001709111018091120190911301C8
:100AC00021E0488157DF8091040190910501019751
:100AD0009093050180930401892BD9F410920301AE
:100AE0008091160181FF3AC08091170190E020911A
:100AF0001401309115018217930781F16091100163
:100B00007091110180911201909113014881DADEF8
:100B100011E08091100190911101A0911201B0910A
:100B200013010196A11DB11D809310019093110135
:100B3000A0931201B093130121969E012F19201743
:100B400008F09FCF40910301413009F4AACF68819A
:100B5000809110019091110191DEB5CF11E0D9CFB4
:100B60006091100170911101809112019091130117
:100B700020E04881FFDE80911701815080931701AA
:100B8000882309F0A0CF609110017091110180912C
:100B9000120190911301488195DE80911401809398
:100BA000170191CF10E06DCF0F931F93CF93DF9379
:100BB000082F162F40910301842F8250823038F085
:100BC0001FEF812FDF91CF911F910F910895662321
:100BD00099F1802F9C01E90120C080911001909132
:100BE00011012EDE88838091100190911101A09156
:100BF0001201B09113010196A11DB11D8093100146
:100C000090931101A0931201B093130121969E01BC
:100C1000201B211778F4409103014230F1F66091D6
:100C20001001709111018091120190911301D4DD96
:100C30008883D9CF183028F610920301812FDF91D5
:100C4000CF911F910F9108950F931F93CF93DF932F
:100C50008C01EC0189818130F1F0823009F4B0C05F
:100C6000833031F1843009F482C0873009F456C0F2
:100C7000853009F41EC1863009F4D7C0883009F4E4
:100C8000A5C0893009F41CC18A3009F42DC180E067
:100C9000C8E0D1E037C0329B3EC08091060193DCB2
:100CA000109207014198FEDC80E0C8E0D1E02AC044
:100CB000E0914301F0914401E8018A810995C8E07F
:100CC000D1E0809308012091430130914401F80163
:100CD0008381F901099580930901209143013091A5
:100CE0004401F8018481F901099580930A0120915A
:100CF000430130914401F8018581F9010995809300
:100D00000B0184E0D0932701C0932601DF91CF919E
:100D10001F910F91089585E056DCC2CF80910701A5
:100D2000882399F4E8019B8180E02A8130E0822BBE
:100D3000932BAA2797FDA095BA2F8093100190932B
:100D40001101A0931201B0931301F801978180E083
:100D5000268130E0822B932B909305018093040130
:100D600083E0809303018FEFC8E0D1E0CBCF809187
:100D70000701882399F4E8019B8180E02A8130E013
:100D8000822B932BAA2797FDA095BA2F8093100151
:100D900090931101A0931201B0931301F801978170
:100DA00080E0268130E0822B932B90930501809385
:100DB000040182E0809303018FEFC8E0D1E0A2CF6D
:100DC00093DC419A80E0C8E0D1E09CCF809107019C
:100DD000882399F4F801938180E0228130E0822B0E
:100DE000932BAA2797FDA095BA2F8093100190937B
:100DF0001101A0931201B0931301109215011092EA
:100E0000140110921601E8019F8180E02E8130E0EC
:100E1000822B932B909305018093040184E08093AF
:100E200003018FEFC8E0D1E06DCF809107018823E7
:100E300099F4E8019B8180E02A8130E0822B932B9A
:100E4000AA2797FDA095BA2F8093100190931101C6
:100E5000A0931201B0931301F80184819581292F89
:100E60002F7020931601492F50E0407F507042951B
:100E70005295507F5427407F5427480F511D50935F
:100E800015014093140120FF02C040931701E801AF
:100E90009F8180E02E8130E0822B932B909305017F
:100EA0008093040181E0809303018FEFC8E0D1E0DB
:100EB00029CF49DCC8E0D1E08093080181E022CF4E
:100EC00081E080930701F80182819381A481B5813B
:100ED0008093100190931101A0931201B09313011C
:100EE00080E0C8E0D1E00ECFE8018A81809306015E
:100EF000C8E0D1E01092080181E004CFF894FFCF60
:020F00005AFF96
:00000001FF
